{
  "contractName": "Agent",
  "abi": [
    {
      "constant": true,
      "inputs": [
        {
          "internalType": "uint256",
          "name": "",
          "type": "uint256"
        }
      ],
      "name": "doctorList",
      "outputs": [
        {
          "internalType": "address",
          "name": "",
          "type": "address"
        }
      ],
      "payable": false,
      "stateMutability": "view",
      "type": "function"
    },
    {
      "constant": true,
      "inputs": [
        {
          "internalType": "uint256",
          "name": "",
          "type": "uint256"
        }
      ],
      "name": "insurerList",
      "outputs": [
        {
          "internalType": "address",
          "name": "",
          "type": "address"
        }
      ],
      "payable": false,
      "stateMutability": "view",
      "type": "function"
    },
    {
      "constant": true,
      "inputs": [
        {
          "internalType": "uint256",
          "name": "",
          "type": "uint256"
        }
      ],
      "name": "patientList",
      "outputs": [
        {
          "internalType": "address",
          "name": "",
          "type": "address"
        }
      ],
      "payable": false,
      "stateMutability": "view",
      "type": "function"
    },
    {
      "constant": false,
      "inputs": [
        {
          "internalType": "string",
          "name": "_name",
          "type": "string"
        },
        {
          "internalType": "uint256",
          "name": "_age",
          "type": "uint256"
        },
        {
          "internalType": "uint256",
          "name": "_designation",
          "type": "uint256"
        },
        {
          "internalType": "string",
          "name": "_hash",
          "type": "string"
        }
      ],
      "name": "add_agent",
      "outputs": [],
      "payable": false,
      "stateMutability": "nonpayable",
      "type": "function"
    },
    {
      "constant": true,
      "inputs": [
        {
          "internalType": "address",
          "name": "addr",
          "type": "address"
        }
      ],
      "name": "get_patient",
      "outputs": [
        {
          "internalType": "string",
          "name": "",
          "type": "string"
        },
        {
          "internalType": "uint256",
          "name": "",
          "type": "uint256"
        },
        {
          "internalType": "uint256[]",
          "name": "",
          "type": "uint256[]"
        },
        {
          "internalType": "address",
          "name": "",
          "type": "address"
        },
        {
          "internalType": "string",
          "name": "",
          "type": "string"
        },
        {
          "internalType": "address",
          "name": "",
          "type": "address"
        },
        {
          "internalType": "address",
          "name": "",
          "type": "address"
        }
      ],
      "payable": false,
      "stateMutability": "view",
      "type": "function"
    },
    {
      "constant": true,
      "inputs": [
        {
          "internalType": "address",
          "name": "addr",
          "type": "address"
        }
      ],
      "name": "get_doctor",
      "outputs": [
        {
          "internalType": "string",
          "name": "",
          "type": "string"
        },
        {
          "internalType": "uint256",
          "name": "",
          "type": "uint256"
        }
      ],
      "payable": false,
      "stateMutability": "view",
      "type": "function"
    },
    {
      "constant": true,
      "inputs": [
        {
          "internalType": "address",
          "name": "paddr",
          "type": "address"
        },
        {
          "internalType": "address",
          "name": "daddr",
          "type": "address"
        }
      ],
      "name": "get_patient_doctor_name",
      "outputs": [
        {
          "internalType": "string",
          "name": "",
          "type": "string"
        },
        {
          "internalType": "string",
          "name": "",
          "type": "string"
        }
      ],
      "payable": false,
      "stateMutability": "view",
      "type": "function"
    },
    {
      "constant": true,
      "inputs": [
        {
          "internalType": "address",
          "name": "addr",
          "type": "address"
        }
      ],
      "name": "get_insurer",
      "outputs": [
        {
          "internalType": "string",
          "name": "",
          "type": "string"
        },
        {
          "internalType": "uint256",
          "name": "",
          "type": "uint256"
        },
        {
          "internalType": "address[]",
          "name": "",
          "type": "address[]"
        },
        {
          "internalType": "address[]",
          "name": "",
          "type": "address[]"
        },
        {
          "internalType": "uint256[]",
          "name": "",
          "type": "uint256[]"
        }
      ],
      "payable": false,
      "stateMutability": "view",
      "type": "function"
    },
    {
      "constant": false,
      "inputs": [
        {
          "internalType": "address",
          "name": "addr",
          "type": "address"
        }
      ],
      "name": "permit_access",
      "outputs": [],
      "payable": true,
      "stateMutability": "payable",
      "type": "function"
    },
    {
      "constant": false,
      "inputs": [
        {
          "internalType": "address payable",
          "name": "iaddr",
          "type": "address"
        },
        {
          "internalType": "uint256[]",
          "name": "_diagnosis",
          "type": "uint256[]"
        }
      ],
      "name": "select_insurer",
      "outputs": [],
      "payable": true,
      "stateMutability": "payable",
      "type": "function"
    },
    {
      "constant": false,
      "inputs": [
        {
          "internalType": "address",
          "name": "paddr",
          "type": "address"
        },
        {
          "internalType": "uint256",
          "name": "_diagnosis",
          "type": "uint256"
        },
        {
          "internalType": "string",
          "name": "_hash",
          "type": "string"
        }
      ],
      "name": "insurance_claim",
      "outputs": [],
      "payable": false,
      "stateMutability": "nonpayable",
      "type": "function"
    },
    {
      "constant": false,
      "inputs": [
        {
          "internalType": "address payable",
          "name": "paddr",
          "type": "address"
        }
      ],
      "name": "accept_claim",
      "outputs": [],
      "payable": true,
      "stateMutability": "payable",
      "type": "function"
    },
    {
      "constant": false,
      "inputs": [
        {
          "internalType": "address",
          "name": "paddr",
          "type": "address"
        },
        {
          "internalType": "address",
          "name": "daddr",
          "type": "address"
        }
      ],
      "name": "remove_patient",
      "outputs": [],
      "payable": false,
      "stateMutability": "nonpayable",
      "type": "function"
    },
    {
      "constant": true,
      "inputs": [
        {
          "internalType": "address",
          "name": "addr",
          "type": "address"
        }
      ],
      "name": "get_accessed_doctorlist_for_patient",
      "outputs": [
        {
          "internalType": "address[]",
          "name": "",
          "type": "address[]"
        }
      ],
      "payable": false,
      "stateMutability": "view",
      "type": "function"
    },
    {
      "constant": true,
      "inputs": [
        {
          "internalType": "address",
          "name": "addr",
          "type": "address"
        }
      ],
      "name": "get_accessed_patientlist_for_doctor",
      "outputs": [
        {
          "internalType": "address[]",
          "name": "",
          "type": "address[]"
        }
      ],
      "payable": false,
      "stateMutability": "view",
      "type": "function"
    },
    {
      "constant": false,
      "inputs": [
        {
          "internalType": "address",
          "name": "daddr",
          "type": "address"
        }
      ],
      "name": "revoke_access",
      "outputs": [],
      "payable": true,
      "stateMutability": "payable",
      "type": "function"
    },
    {
      "constant": true,
      "inputs": [],
      "name": "get_patient_list",
      "outputs": [
        {
          "internalType": "address[]",
          "name": "",
          "type": "address[]"
        }
      ],
      "payable": false,
      "stateMutability": "view",
      "type": "function"
    },
    {
      "constant": true,
      "inputs": [],
      "name": "get_doctor_list",
      "outputs": [
        {
          "internalType": "address[]",
          "name": "",
          "type": "address[]"
        }
      ],
      "payable": false,
      "stateMutability": "view",
      "type": "function"
    },
    {
      "constant": true,
      "inputs": [],
      "name": "get_insurer_list",
      "outputs": [
        {
          "internalType": "address[]",
          "name": "",
          "type": "address[]"
        }
      ],
      "payable": false,
      "stateMutability": "view",
      "type": "function"
    },
    {
      "constant": true,
      "inputs": [
        {
          "internalType": "address",
          "name": "paddr",
          "type": "address"
        }
      ],
      "name": "get_hash",
      "outputs": [
        {
          "internalType": "string",
          "name": "",
          "type": "string"
        }
      ],
      "payable": false,
      "stateMutability": "view",
      "type": "function"
    }
  ],
  "bytecode": "0x608060405234801561001057600080fd5b506135f4806100206000396000f3fe60806040526004361061011e5760003560e01c8063b703ea4f116100a0578063dd44176b11610064578063dd44176b14610c73578063e81ac05414610d19578063ee59d4cd14610d85578063f02d90a414610df1578063f24be9e714610f645761011e565b8063b703ea4f14610a2c578063babb1d4114610a70578063bcffb7ca14610aeb578063c39e963514610b2f578063da9bdff514610b9b5761011e565b80634042d2d4116100e75780634042d2d41461044f57806356c98c481461066d57806378ffb2921461073e5780637e1519ce146107b9578063a44672cf146108835761011e565b80627ee3ce146101235780630362fe9b146101c9578063127ca4b41461023a5780631e3fc3b8146102b557806327b1dcee1461040b575b600080fd5b34801561012f57600080fd5b506101726004803603602081101561014657600080fd5b81019080803573ffffffffffffffffffffffffffffffffffffffff169060200190929190505050611056565b6040518080602001828103825283818151815260200191508051906020019060200280838360005b838110156101b557808201518184015260208101905061019a565b505050509050019250505060405180910390f35b3480156101d557600080fd5b50610238600480360360408110156101ec57600080fd5b81019080803573ffffffffffffffffffffffffffffffffffffffff169060200190929190803573ffffffffffffffffffffffffffffffffffffffff16906020019092919050505061112c565b005b34801561024657600080fd5b506102736004803603602081101561025d57600080fd5b81019080803590602001909291905050506111c8565b604051808273ffffffffffffffffffffffffffffffffffffffff1673ffffffffffffffffffffffffffffffffffffffff16815260200191505060405180910390f35b3480156102c157600080fd5b50610324600480360360408110156102d857600080fd5b81019080803573ffffffffffffffffffffffffffffffffffffffff169060200190929190803573ffffffffffffffffffffffffffffffffffffffff169060200190929190505050611204565b604051808060200180602001838103835285818151815260200191508051906020019080838360005b8381101561036857808201518184015260208101905061034d565b50505050905090810190601f1680156103955780820380516001836020036101000a031916815260200191505b50838103825284818151815260200191508051906020019080838360005b838110156103ce5780820151818401526020810190506103b3565b50505050905090810190601f1680156103fb5780820380516001836020036101000a031916815260200191505b5094505050505060405180910390f35b61044d6004803603602081101561042157600080fd5b81019080803573ffffffffffffffffffffffffffffffffffffffff1690602001909291905050506113ce565b005b34801561045b57600080fd5b5061049e6004803603602081101561047257600080fd5b81019080803573ffffffffffffffffffffffffffffffffffffffff16906020019092919050505061143a565b6040518080602001888152602001806020018773ffffffffffffffffffffffffffffffffffffffff1673ffffffffffffffffffffffffffffffffffffffff168152602001806020018673ffffffffffffffffffffffffffffffffffffffff1673ffffffffffffffffffffffffffffffffffffffff1681526020018573ffffffffffffffffffffffffffffffffffffffff1673ffffffffffffffffffffffffffffffffffffffff16815260200184810384528b818151815260200191508051906020019080838360005b83811015610582578082015181840152602081019050610567565b50505050905090810190601f1680156105af5780820380516001836020036101000a031916815260200191505b50848103835289818151815260200191508051906020019060200280838360005b838110156105eb5780820151818401526020810190506105d0565b50505050905001848103825287818151815260200191508051906020019080838360005b8381101561062a57808201518184015260208101905061060f565b50505050905090810190601f1680156106575780820380516001836020036101000a031916815260200191505b509a505050505050505050505060405180910390f35b34801561067957600080fd5b506106bc6004803603602081101561069057600080fd5b81019080803573ffffffffffffffffffffffffffffffffffffffff169060200190929190505050611758565b6040518080602001838152602001828103825284818151815260200191508051906020019080838360005b838110156107025780820151818401526020810190506106e7565b50505050905090810190601f16801561072f5780820380516001836020036101000a031916815260200191505b50935050505060405180910390f35b34801561074a57600080fd5b506107776004803603602081101561076157600080fd5b8101908080359060200190929190505050611886565b604051808273ffffffffffffffffffffffffffffffffffffffff1673ffffffffffffffffffffffffffffffffffffffff16815260200191505060405180910390f35b3480156107c557600080fd5b50610808600480360360208110156107dc57600080fd5b81019080803573ffffffffffffffffffffffffffffffffffffffff1690602001909291905050506118c2565b6040518080602001828103825283818151815260200191508051906020019080838360005b8381101561084857808201518184015260208101905061082d565b50505050905090810190601f1680156108755780820380516001836020036101000a031916815260200191505b509250505060405180910390f35b34801561088f57600080fd5b506108d2600480360360208110156108a657600080fd5b81019080803573ffffffffffffffffffffffffffffffffffffffff1690602001909291905050506119a6565b604051808060200186815260200180602001806020018060200185810385528a818151815260200191508051906020019080838360005b83811015610924578082015181840152602081019050610909565b50505050905090810190601f1680156109515780820380516001836020036101000a031916815260200191505b50858103845288818151815260200191508051906020019060200280838360005b8381101561098d578082015181840152602081019050610972565b50505050905001858103835287818151815260200191508051906020019060200280838360005b838110156109cf5780820151818401526020810190506109b4565b50505050905001858103825286818151815260200191508051906020019060200280838360005b83811015610a115780820151818401526020810190506109f6565b50505050905001995050505050505050505060405180910390f35b610a6e60048036036020811015610a4257600080fd5b81019080803573ffffffffffffffffffffffffffffffffffffffff169060200190929190505050611d0b565b005b348015610a7c57600080fd5b50610aa960048036036020811015610a9357600080fd5b8101908080359060200190929190505050612396565b604051808273ffffffffffffffffffffffffffffffffffffffff1673ffffffffffffffffffffffffffffffffffffffff16815260200191505060405180910390f35b610b2d60048036036020811015610b0157600080fd5b81019080803573ffffffffffffffffffffffffffffffffffffffff1690602001909291905050506123d2565b005b348015610b3b57600080fd5b50610b4461254b565b6040518080602001828103825283818151815260200191508051906020019060200280838360005b83811015610b87578082015181840152602081019050610b6c565b505050509050019250505060405180910390f35b610c7160048036036040811015610bb157600080fd5b81019080803573ffffffffffffffffffffffffffffffffffffffff16906020019092919080359060200190640100000000811115610bee57600080fd5b820183602082011115610c0057600080fd5b80359060200191846020830284011164010000000083111715610c2257600080fd5b919080806020026020016040519081016040528093929190818152602001838360200280828437600081840152601f19601f8201169050808301925050505050505091929192905050506125d9565b005b348015610c7f57600080fd5b50610cc260048036036020811015610c9657600080fd5b81019080803573ffffffffffffffffffffffffffffffffffffffff169060200190929190505050612768565b6040518080602001828103825283818151815260200191508051906020019060200280838360005b83811015610d05578082015181840152602081019050610cea565b505050509050019250505060405180910390f35b348015610d2557600080fd5b50610d2e612838565b6040518080602001828103825283818151815260200191508051906020019060200280838360005b83811015610d71578082015181840152602081019050610d56565b505050509050019250505060405180910390f35b348015610d9157600080fd5b50610d9a6128c6565b6040518080602001828103825283818151815260200191508051906020019060200280838360005b83811015610ddd578082015181840152602081019050610dc2565b505050509050019250505060405180910390f35b348015610dfd57600080fd5b50610f6260048036036080811015610e1457600080fd5b8101908080359060200190640100000000811115610e3157600080fd5b820183602082011115610e4357600080fd5b80359060200191846001830284011164010000000083111715610e6557600080fd5b91908080601f016020809104026020016040519081016040528093929190818152602001838380828437600081840152601f19601f820116905080830192505050505050509192919290803590602001909291908035906020019092919080359060200190640100000000811115610edc57600080fd5b820183602082011115610eee57600080fd5b80359060200191846001830284011164010000000083111715610f1057600080fd5b91908080601f016020809104026020016040519081016040528093929190818152602001838380828437600081840152601f19601f820116905080830192505050505050509192919290505050612954565b005b348015610f7057600080fd5b5061105460048036036060811015610f8757600080fd5b81019080803573ffffffffffffffffffffffffffffffffffffffff1690602001909291908035906020019092919080359060200190640100000000811115610fce57600080fd5b820183602082011115610fe057600080fd5b8035906020019184600183028401116401000000008311171561100257600080fd5b91908080601f016020809104026020016040519081016040528093929190818152602001838380828437600081840152601f19601f820116905080830192505050505050509192919290505050612cb5565b005b60606000600460008473ffffffffffffffffffffffffffffffffffffffff1673ffffffffffffffffffffffffffffffffffffffff16815260200190815260200160002060020190508080548060200260200160405190810160405280929190818152602001828054801561111f57602002820191906000526020600020905b8160009054906101000a900473ffffffffffffffffffffffffffffffffffffffff1673ffffffffffffffffffffffffffffffffffffffff16815260200190600101908083116110d5575b5050505050915050919050565b611177600560008373ffffffffffffffffffffffffffffffffffffffff1673ffffffffffffffffffffffffffffffffffffffff1681526020019081526020016000206002018361320b565b506111c3600460008473ffffffffffffffffffffffffffffffffffffffff1673ffffffffffffffffffffffffffffffffffffffff1681526020019081526020016000206002018261320b565b505050565b600281815481106111d557fe5b906000526020600020016000915054906101000a900473ffffffffffffffffffffffffffffffffffffffff1681565b606080600460008573ffffffffffffffffffffffffffffffffffffffff1673ffffffffffffffffffffffffffffffffffffffff168152602001908152602001600020600001600560008573ffffffffffffffffffffffffffffffffffffffff1673ffffffffffffffffffffffffffffffffffffffff168152602001908152602001600020600001818054600181600116156101000203166002900480601f0160208091040260200160405190810160405280929190818152602001828054600181600116156101000203166002900480156113205780601f106112f557610100808354040283529160200191611320565b820191906000526020600020905b81548152906001019060200180831161130357829003601f168201915b50505050509150808054600181600116156101000203166002900480601f0160208091040260200160405190810160405280929190818152602001828054600181600116156101000203166002900480156113bc5780601f10611391576101008083540402835291602001916113bc565b820191906000526020600020905b81548152906001019060200180831161139f57829003601f168201915b50505050509050915091509250929050565b6113d8338261112c565b3373ffffffffffffffffffffffffffffffffffffffff166108fc671bc16d674ec800009081150290604051600060405180830381858888f19350505050158015611426573d6000803e3d6000fd5b506002600080828254039250508190555050565b60606000606060006060600080600460008973ffffffffffffffffffffffffffffffffffffffff1673ffffffffffffffffffffffffffffffffffffffff168152602001908152602001600020600001600460008a73ffffffffffffffffffffffffffffffffffffffff1673ffffffffffffffffffffffffffffffffffffffff16815260200190815260200160002060010154600460008b73ffffffffffffffffffffffffffffffffffffffff1673ffffffffffffffffffffffffffffffffffffffff168152602001908152602001600020600301600760008c73ffffffffffffffffffffffffffffffffffffffff1673ffffffffffffffffffffffffffffffffffffffff16815260200190815260200160002060009054906101000a900473ffffffffffffffffffffffffffffffffffffffff16600460008d73ffffffffffffffffffffffffffffffffffffffff1673ffffffffffffffffffffffffffffffffffffffff168152602001908152602001600020600401338d868054600181600116156101000203166002900480601f0160208091040260200160405190810160405280929190818152602001828054600181600116156101000203166002900480156116475780601f1061161c57610100808354040283529160200191611647565b820191906000526020600020905b81548152906001019060200180831161162a57829003601f168201915b505050505096508480548060200260200160405190810160405280929190818152602001828054801561169957602002820191906000526020600020905b815481526020019060010190808311611685575b50505050509450828054600181600116156101000203166002900480601f0160208091040260200160405190810160405280929190818152602001828054600181600116156101000203166002900480156117355780601f1061170a57610100808354040283529160200191611735565b820191906000526020600020905b81548152906001019060200180831161171857829003601f168201915b505050505092508191509650965096509650965096509650919395979092949650565b60606000600560008473ffffffffffffffffffffffffffffffffffffffff1673ffffffffffffffffffffffffffffffffffffffff168152602001908152602001600020600001600560008573ffffffffffffffffffffffffffffffffffffffff1673ffffffffffffffffffffffffffffffffffffffff16815260200190815260200160002060010154818054600181600116156101000203166002900480601f0160208091040260200160405190810160405280929190818152602001828054600181600116156101000203166002900480156118765780601f1061184b57610100808354040283529160200191611876565b820191906000526020600020905b81548152906001019060200180831161185957829003601f168201915b5050505050915091509150915091565b6003818154811061189357fe5b906000526020600020016000915054906101000a900473ffffffffffffffffffffffffffffffffffffffff1681565b6060600460008373ffffffffffffffffffffffffffffffffffffffff1673ffffffffffffffffffffffffffffffffffffffff1681526020019081526020016000206004018054600181600116156101000203166002900480601f01602080910402602001604051908101604052809291908181526020018280546001816001161561010002031660029004801561199a5780601f1061196f5761010080835404028352916020019161199a565b820191906000526020600020905b81548152906001019060200180831161197d57829003601f168201915b50505050509050919050565b606060006060806060600660008773ffffffffffffffffffffffffffffffffffffffff1673ffffffffffffffffffffffffffffffffffffffff168152602001908152602001600020600001600660008873ffffffffffffffffffffffffffffffffffffffff1673ffffffffffffffffffffffffffffffffffffffff16815260200190815260200160002060010154600660008973ffffffffffffffffffffffffffffffffffffffff1673ffffffffffffffffffffffffffffffffffffffff168152602001908152602001600020600201600660008a73ffffffffffffffffffffffffffffffffffffffff1673ffffffffffffffffffffffffffffffffffffffff168152602001908152602001600020600301600660008b73ffffffffffffffffffffffffffffffffffffffff1673ffffffffffffffffffffffffffffffffffffffff168152602001908152602001600020600401848054600181600116156101000203166002900480601f016020809104026020016040519081016040528092919081815260200182805460018160011615610100020316600290048015611b8f5780601f10611b6457610100808354040283529160200191611b8f565b820191906000526020600020905b815481529060010190602001808311611b7257829003601f168201915b5050505050945082805480602002602001604051908101604052809291908181526020018280548015611c1757602002820191906000526020600020905b8160009054906101000a900473ffffffffffffffffffffffffffffffffffffffff1673ffffffffffffffffffffffffffffffffffffffff1681526020019060010190808311611bcd575b5050505050925081805480602002602001604051908101604052809291908181526020018280548015611c9f57602002820191906000526020600020905b8160009054906101000a900473ffffffffffffffffffffffffffffffffffffffff1673ffffffffffffffffffffffffffffffffffffffff1681526020019060010190808311611c55575b5050505050915080805480602002602001604051908101604052809291908181526020018280548015611cf157602002820191906000526020600020905b815481526020019060010190808311611cdd575b505050505090509450945094509450945091939590929450565b673782dace9d9000003414611d1f57600080fd5b8073ffffffffffffffffffffffffffffffffffffffff166108fc349081150290604051600060405180830381858888f19350505050158015611d65573d6000803e3d6000fd5b506000611db3600660003373ffffffffffffffffffffffffffffffffffffffff1673ffffffffffffffffffffffffffffffffffffffff1681526020019081526020016000206002018361320b565b506001600660003373ffffffffffffffffffffffffffffffffffffffff1673ffffffffffffffffffffffffffffffffffffffff168152602001908152602001600020600401805490501415611e8157600660003373ffffffffffffffffffffffffffffffffffffffff1673ffffffffffffffffffffffffffffffffffffffff1681526020019081526020016000206003018181548110611e4f57fe5b9060005260206000200160006101000a81549073ffffffffffffffffffffffffffffffffffffffff0219169055612099565b600660003373ffffffffffffffffffffffffffffffffffffffff1673ffffffffffffffffffffffffffffffffffffffff1681526020019081526020016000206003016001600660003373ffffffffffffffffffffffffffffffffffffffff1673ffffffffffffffffffffffffffffffffffffffff168152602001908152602001600020600301805490500381548110611f1657fe5b9060005260206000200160009054906101000a900473ffffffffffffffffffffffffffffffffffffffff16600660003373ffffffffffffffffffffffffffffffffffffffff1673ffffffffffffffffffffffffffffffffffffffff1681526020019081526020016000206003018281548110611f8e57fe5b9060005260206000200160006101000a81548173ffffffffffffffffffffffffffffffffffffffff021916908373ffffffffffffffffffffffffffffffffffffffff160217905550600660003373ffffffffffffffffffffffffffffffffffffffff1673ffffffffffffffffffffffffffffffffffffffff1681526020019081526020016000206003016001600660003373ffffffffffffffffffffffffffffffffffffffff1673ffffffffffffffffffffffffffffffffffffffff16815260200190815260200160002060030180549050038154811061206b57fe5b9060005260206000200160006101000a81549073ffffffffffffffffffffffffffffffffffffffff02191690555b600660003373ffffffffffffffffffffffffffffffffffffffff1673ffffffffffffffffffffffffffffffffffffffff1681526020019081526020016000206003018054809190600190036120ee9190613449565b506001600660003373ffffffffffffffffffffffffffffffffffffffff1673ffffffffffffffffffffffffffffffffffffffff16815260200190815260200160002060040180549050141561219d57600660003373ffffffffffffffffffffffffffffffffffffffff1673ffffffffffffffffffffffffffffffffffffffff168152602001908152602001600020600401818154811061218a57fe5b906000526020600020016000905561233c565b600660003373ffffffffffffffffffffffffffffffffffffffff1673ffffffffffffffffffffffffffffffffffffffff1681526020019081526020016000206004016001600660003373ffffffffffffffffffffffffffffffffffffffff1673ffffffffffffffffffffffffffffffffffffffff16815260200190815260200160002060040180549050038154811061223257fe5b9060005260206000200154600660003373ffffffffffffffffffffffffffffffffffffffff1673ffffffffffffffffffffffffffffffffffffffff168152602001908152602001600020600401828154811061228a57fe5b9060005260206000200181905550600660003373ffffffffffffffffffffffffffffffffffffffff1673ffffffffffffffffffffffffffffffffffffffff1681526020019081526020016000206004016001600660003373ffffffffffffffffffffffffffffffffffffffff1673ffffffffffffffffffffffffffffffffffffffff16815260200190815260200160002060040180549050038154811061232d57fe5b90600052602060002001600090555b600660003373ffffffffffffffffffffffffffffffffffffffff1673ffffffffffffffffffffffffffffffffffffffff1681526020019081526020016000206004018054809190600190036123919190613475565b505050565b600181815481106123a357fe5b906000526020600020016000915054906101000a900473ffffffffffffffffffffffffffffffffffffffff1681565b671bc16d674ec8000034146123e657600080fd5b600260008082825401925050819055506001600560008373ffffffffffffffffffffffffffffffffffffffff1673ffffffffffffffffffffffffffffffffffffffff1681526020019081526020016000206002013390806001815401808255809150509060018203906000526020600020016000909192909190916101000a81548173ffffffffffffffffffffffffffffffffffffffff021916908373ffffffffffffffffffffffffffffffffffffffff16021790555050506001600460003373ffffffffffffffffffffffffffffffffffffffff1673ffffffffffffffffffffffffffffffffffffffff1681526020019081526020016000206002018290806001815401808255809150509060018203906000526020600020016000909192909190916101000a81548173ffffffffffffffffffffffffffffffffffffffff021916908373ffffffffffffffffffffffffffffffffffffffff160217905550505050565b606060028054806020026020016040519081016040528092919081815260200182805480156125cf57602002820191906000526020600020905b8160009054906101000a900473ffffffffffffffffffffffffffffffffffffffff1673ffffffffffffffffffffffffffffffffffffffff1681526020019060010190808311612585575b5050505050905090565b600081519050670de0b6b3a7640000810234146125f557600080fd5b8273ffffffffffffffffffffffffffffffffffffffff166108fc349081150290604051600060405180830381858888f1935050505015801561263b573d6000803e3d6000fd5b5082600760003373ffffffffffffffffffffffffffffffffffffffff1673ffffffffffffffffffffffffffffffffffffffff16815260200190815260200160002060006101000a81548173ffffffffffffffffffffffffffffffffffffffff021916908373ffffffffffffffffffffffffffffffffffffffff16021790555081600460003373ffffffffffffffffffffffffffffffffffffffff1673ffffffffffffffffffffffffffffffffffffffff16815260200190815260200160002060030190805190602001906127109291906134a1565b50600660008473ffffffffffffffffffffffffffffffffffffffff1673ffffffffffffffffffffffffffffffffffffffff16815260200190815260200160002060010160008154809291906001019190505550505050565b6060600560008373ffffffffffffffffffffffffffffffffffffffff1673ffffffffffffffffffffffffffffffffffffffff16815260200190815260200160002060020180548060200260200160405190810160405280929190818152602001828054801561282c57602002820191906000526020600020905b8160009054906101000a900473ffffffffffffffffffffffffffffffffffffffff1673ffffffffffffffffffffffffffffffffffffffff16815260200190600101908083116127e2575b50505050509050919050565b606060018054806020026020016040519081016040528092919081815260200182805480156128bc57602002820191906000526020600020905b8160009054906101000a900473ffffffffffffffffffffffffffffffffffffffff1673ffffffffffffffffffffffffffffffffffffffff1681526020019060010190808311612872575b5050505050905090565b6060600380548060200260200160405190810160405280929190818152602001828054801561294a57602002820191906000526020600020905b8160009054906101000a900473ffffffffffffffffffffffffffffffffffffffff1673ffffffffffffffffffffffffffffffffffffffff1681526020019060010190808311612900575b5050505050905090565b60003390506000831415612ac45784600460008373ffffffffffffffffffffffffffffffffffffffff1673ffffffffffffffffffffffffffffffffffffffff16815260200190815260200160002060000190805190602001906129b89291906134ee565b5083600460008373ffffffffffffffffffffffffffffffffffffffff1673ffffffffffffffffffffffffffffffffffffffff1681526020019081526020016000206001018190555081600460008373ffffffffffffffffffffffffffffffffffffffff1673ffffffffffffffffffffffffffffffffffffffff1681526020019081526020016000206004019080519060200190612a569291906134ee565b506001808290806001815401808255809150509060018203906000526020600020016000909192909190916101000a81548173ffffffffffffffffffffffffffffffffffffffff021916908373ffffffffffffffffffffffffffffffffffffffff1602179055505050612cae565b6001831415612bd95784600560008373ffffffffffffffffffffffffffffffffffffffff1673ffffffffffffffffffffffffffffffffffffffff1681526020019081526020016000206000019080519060200190612b239291906134ee565b5083600560008373ffffffffffffffffffffffffffffffffffffffff1673ffffffffffffffffffffffffffffffffffffffff16815260200190815260200160002060010181905550600160028290806001815401808255809150509060018203906000526020600020016000909192909190916101000a81548173ffffffffffffffffffffffffffffffffffffffff021916908373ffffffffffffffffffffffffffffffffffffffff1602179055505050612cad565b6002831415612ca75784600660008373ffffffffffffffffffffffffffffffffffffffff1673ffffffffffffffffffffffffffffffffffffffff1681526020019081526020016000206000019080519060200190612c389291906134ee565b50600160038290806001815401808255809150509060018203906000526020600020016000909192909190916101000a81548173ffffffffffffffffffffffffffffffffffffffff021916908373ffffffffffffffffffffffffffffffffffffffff1602179055505050612cac565b600080fd5b5b5b5050505050565b600080905060008090505b600560003373ffffffffffffffffffffffffffffffffffffffff1673ffffffffffffffffffffffffffffffffffffffff16815260200190815260200160002060020180549050811015612e29578473ffffffffffffffffffffffffffffffffffffffff16600560003373ffffffffffffffffffffffffffffffffffffffff1673ffffffffffffffffffffffffffffffffffffffff1681526020019081526020016000206002018281548110612d7157fe5b9060005260206000200160009054906101000a900473ffffffffffffffffffffffffffffffffffffffff1673ffffffffffffffffffffffffffffffffffffffff161415612e1c573373ffffffffffffffffffffffffffffffffffffffff166108fc671bc16d674ec800009081150290604051600060405180830381858888f19350505050158015612e06573d6000803e3d6000fd5b5060026000808282540392505081905550600191505b8080600101915050612cc0565b50600115158115151415612e5057612e4184836133ee565b612e4b843361112c565b612e55565b600080fd5b600080905060008090505b600460008773ffffffffffffffffffffffffffffffffffffffff1673ffffffffffffffffffffffffffffffffffffffff16815260200190815260200160002060030180549050811015612f1e5784600460008873ffffffffffffffffffffffffffffffffffffffff1673ffffffffffffffffffffffffffffffffffffffff1681526020019081526020016000206003018281548110612efb57fe5b90600052602060002001541415612f1157600191505b8080600101915050612e60565b50801561320457600160066000600760008973ffffffffffffffffffffffffffffffffffffffff1673ffffffffffffffffffffffffffffffffffffffff16815260200190815260200160002060009054906101000a900473ffffffffffffffffffffffffffffffffffffffff1673ffffffffffffffffffffffffffffffffffffffff1673ffffffffffffffffffffffffffffffffffffffff1681526020019081526020016000206002018690806001815401808255809150509060018203906000526020600020016000909192909190916101000a81548173ffffffffffffffffffffffffffffffffffffffff021916908373ffffffffffffffffffffffffffffffffffffffff1602179055505050600160066000600760008973ffffffffffffffffffffffffffffffffffffffff1673ffffffffffffffffffffffffffffffffffffffff16815260200190815260200160002060009054906101000a900473ffffffffffffffffffffffffffffffffffffffff1673ffffffffffffffffffffffffffffffffffffffff1673ffffffffffffffffffffffffffffffffffffffff1681526020019081526020016000206003013390806001815401808255809150509060018203906000526020600020016000909192909190916101000a81548173ffffffffffffffffffffffffffffffffffffffff021916908373ffffffffffffffffffffffffffffffffffffffff1602179055505050600160066000600760008973ffffffffffffffffffffffffffffffffffffffff1673ffffffffffffffffffffffffffffffffffffffff16815260200190815260200160002060009054906101000a900473ffffffffffffffffffffffffffffffffffffffff1673ffffffffffffffffffffffffffffffffffffffff1673ffffffffffffffffffffffffffffffffffffffff168152602001908152602001600020600401859080600181540180825580915050906001820390600052602060002001600090919290919091505550505b5050505050565b60008060009050600080905060008090505b85805490508110156132a8578473ffffffffffffffffffffffffffffffffffffffff1686828154811061324c57fe5b9060005260206000200160009054906101000a900473ffffffffffffffffffffffffffffffffffffffff1673ffffffffffffffffffffffffffffffffffffffff16141561329b57600192508091505b808060010191505061321d565b50816132b357600080fd5b6001858054905014156132fe578481815481106132cc57fe5b9060005260206000200160006101000a81549073ffffffffffffffffffffffffffffffffffffffff02191690556133d1565b8460018680549050038154811061331157fe5b9060005260206000200160009054906101000a900473ffffffffffffffffffffffffffffffffffffffff1685828154811061334857fe5b9060005260206000200160006101000a81548173ffffffffffffffffffffffffffffffffffffffff021916908373ffffffffffffffffffffffffffffffffffffffff160217905550846001868054905003815481106133a357fe5b9060005260206000200160006101000a81549073ffffffffffffffffffffffffffffffffffffffff02191690555b848054809190600190036133e5919061356e565b50505092915050565b80600460008473ffffffffffffffffffffffffffffffffffffffff1673ffffffffffffffffffffffffffffffffffffffff16815260200190815260200160002060040190805190602001906134449291906134ee565b505050565b8154818355818111156134705781836000526020600020918201910161346f919061359a565b5b505050565b81548183558181111561349c5781836000526020600020918201910161349b919061359a565b5b505050565b8280548282559060005260206000209081019282156134dd579160200282015b828111156134dc5782518255916020019190600101906134c1565b5b5090506134ea919061359a565b5090565b828054600181600116156101000203166002900490600052602060002090601f016020900481019282601f1061352f57805160ff191683800117855561355d565b8280016001018555821561355d579182015b8281111561355c578251825591602001919060010190613541565b5b50905061356a919061359a565b5090565b81548183558181111561359557818360005260206000209182019101613594919061359a565b5b505050565b6135bc91905b808211156135b85760008160009055506001016135a0565b5090565b9056fea265627a7a7231582023c4c2f099197225f82800819534edef80faf659a98b22c3de21049822310c8364736f6c63430005100032",
  "source": "pragma solidity ^0.5.16;\r\n\r\ncontract Agent {\r\n    \r\n    struct patient {\r\n        string name;\r\n        uint age;\r\n        address[] doctorAccessList;\r\n        uint[] diagnosis;\r\n        string record;\r\n    }\r\n    \r\n    struct doctor {\r\n        string name;\r\n        uint age;\r\n        address[] patientAccessList;\r\n    }\r\n\r\n    struct insurer {\r\n        string name;\r\n        uint count_of_patient;\r\n        address[] PatientWhoClaimed;\r\n        address[] DocName;\r\n        uint[] diagnosis; \r\n    }\r\n\r\n\r\n    uint creditPool;\r\n\r\n    address[] public patientList;\r\n    address[] public doctorList;\r\n    address[] public insurerList;\r\n\r\n    mapping (address => patient) patientInfo;\r\n    mapping (address => doctor) doctorInfo;\r\n    mapping (address => insurer) insurerInfo;\r\n    mapping (address => address) Patient_Insurer;\r\n    // might not be necessary\r\n    mapping (address => string) patientRecords;\r\n\r\n\r\n//Creating new users\r\n\r\n\r\n    function add_agent(string memory _name, uint _age, uint _designation, string memory _hash) public {\r\n        address addr = msg.sender;\r\n        \r\n        if(_designation == 0){\r\n            patientInfo[addr].name = _name;\r\n            patientInfo[addr].age = _age;\r\n            patientInfo[addr].record = _hash;\r\n            patientList.push(addr)-1;\r\n        }\r\n       else if (_designation == 1){\r\n            doctorInfo[addr].name = _name;\r\n            doctorInfo[addr].age = _age;\r\n            doctorList.push(addr)-1;\r\n\r\n       }\r\n       else if(_designation == 2){\r\n           insurerInfo[addr].name = _name;\r\n           insurerList.push(addr)-1;\r\n       }\r\n       else{\r\n           revert();\r\n       }\r\n    }\r\n    \r\n//Getting user data\r\n\r\n    function get_patient(address addr) view public returns (string memory, uint, uint[] memory, address, string memory, address, address){\r\n        return (patientInfo[addr].name, patientInfo[addr].age, patientInfo[addr].diagnosis, Patient_Insurer[addr], patientInfo[addr].record, msg.sender, addr);\r\n    }\r\n\r\n    function get_doctor(address addr) view public returns (string memory, uint){\r\n        return (doctorInfo[addr].name, doctorInfo[addr].age);\r\n    }\r\n    function get_patient_doctor_name(address paddr, address daddr) view public returns (string memory, string memory){\r\n        return (patientInfo[paddr].name,doctorInfo[daddr].name);\r\n    }\r\n    function get_insurer(address addr) view public returns (string memory, uint, address[] memory, address[] memory, uint[] memory ){\r\n        return (insurerInfo[addr].name, insurerInfo[addr].count_of_patient, insurerInfo[addr].PatientWhoClaimed, \r\n        insurerInfo[addr].DocName, insurerInfo[addr].diagnosis);\r\n    }\r\n    \r\n    \r\n    \r\n    \r\n\r\n    function permit_access(address addr) payable public {\r\n        require(msg.value == 2 ether);\r\n\r\n        creditPool += 2;\r\n        \r\n        doctorInfo[addr].patientAccessList.push(msg.sender)-1;\r\n        patientInfo[msg.sender].doctorAccessList.push(addr)-1;\r\n        \r\n    }\r\n    \r\n    \r\n\r\n   \r\n    function select_insurer(address payable iaddr, uint[] memory _diagnosis) payable public {\r\n        uint total_amount = (_diagnosis.length);\r\n        require(msg.value == total_amount*(1 ether));\r\n        // require(msg.sender.balance >= msg.value);\r\n        iaddr.transfer(msg.value);\r\n        Patient_Insurer[msg.sender] = iaddr;\r\n        patientInfo[msg.sender].diagnosis = _diagnosis;\r\n        insurerInfo[iaddr].count_of_patient++;\r\n    }\r\n    \r\n    \r\n    \r\n\r\n    //must be called by doctor\r\n    function insurance_claim(address paddr, uint _diagnosis, string memory _hash) public {\r\n        bool patientFound = false;\r\n        for(uint i = 0;i<doctorInfo[msg.sender].patientAccessList.length;i++){\r\n            if(doctorInfo[msg.sender].patientAccessList[i]==paddr){\r\n                msg.sender.transfer(2 ether);\r\n                creditPool -= 2;\r\n                patientFound = true;\r\n                \r\n            }\r\n            \r\n        }\r\n        if(patientFound==true){\r\n            set_hash(paddr, _hash);\r\n            remove_patient(paddr, msg.sender);\r\n        }else {\r\n            revert();\r\n        }\r\n\r\n        bool DiagnosisFound = false;\r\n        for(uint j = 0; j < patientInfo[paddr].diagnosis.length;j++){\r\n            if(patientInfo[paddr].diagnosis[j] == _diagnosis)DiagnosisFound = true;\r\n        }\r\n        if(DiagnosisFound){\r\n            insurerInfo[Patient_Insurer[paddr]].PatientWhoClaimed.push(paddr)-1;\r\n            insurerInfo[Patient_Insurer[paddr]].DocName.push(msg.sender)-1;\r\n            insurerInfo[Patient_Insurer[paddr]].diagnosis.push(_diagnosis)-1;\r\n        }\r\n    }\r\n\r\n\r\n\r\n\r\n    //must be called by insurer\r\n\r\n    function accept_claim(address payable paddr) public payable {\r\n        // require(msg.sender.balance >= msg.value);\r\n        require(msg.value == 4 ether);\r\n        paddr.transfer(msg.value);\r\n        uint index;\r\n        remove_element_in_array(insurerInfo[msg.sender].PatientWhoClaimed,paddr);\r\n        if(insurerInfo[msg.sender].diagnosis.length == 1){\r\n            delete insurerInfo[msg.sender].DocName[index];\r\n        }\r\n        else {\r\n            insurerInfo[msg.sender].DocName[index] = insurerInfo[msg.sender].DocName[insurerInfo[msg.sender].DocName.length - 1];\r\n            delete insurerInfo[msg.sender].DocName[insurerInfo[msg.sender].DocName.length - 1];\r\n\r\n        }\r\n        insurerInfo[msg.sender].DocName.length--;\r\n\r\n        if(insurerInfo[msg.sender].diagnosis.length == 1){\r\n            delete insurerInfo[msg.sender].diagnosis[index];\r\n        }\r\n        else {\r\n            insurerInfo[msg.sender].diagnosis[index] = insurerInfo[msg.sender].diagnosis[insurerInfo[msg.sender].diagnosis.length - 1];\r\n            delete insurerInfo[msg.sender].diagnosis[insurerInfo[msg.sender].diagnosis.length - 1];\r\n\r\n        }\r\n        insurerInfo[msg.sender].diagnosis.length--;   \r\n    }\r\n    \r\n    \r\n    \r\n    \r\n    \r\n    function remove_element_in_array(address[] storage Array, address addr) internal returns(uint)\r\n    {\r\n        bool check = false;\r\n        uint del_index = 0;\r\n        for(uint i = 0; i<Array.length; i++){\r\n            if(Array[i] == addr){\r\n                check = true;\r\n                del_index = i;\r\n            }\r\n        }\r\n        if(!check) revert();\r\n        else{\r\n            if(Array.length == 1){\r\n                delete Array[del_index];\r\n            }\r\n            else {\r\n                Array[del_index] = Array[Array.length - 1];\r\n                delete Array[Array.length - 1];\r\n\r\n            }\r\n            Array.length--;\r\n        }\r\n    }\r\n    \r\n    \r\n    \r\n\r\n    function remove_patient(address paddr, address daddr) public {\r\n        remove_element_in_array(doctorInfo[daddr].patientAccessList, paddr);\r\n        remove_element_in_array(patientInfo[paddr].doctorAccessList, daddr);\r\n    }\r\n    \r\n    \r\n    \r\n    \r\n    \r\n    function get_accessed_doctorlist_for_patient(address addr) public view returns (address[] memory)\r\n    { \r\n        address[] storage doctoraddr = patientInfo[addr].doctorAccessList;\r\n        return doctoraddr;\r\n    }\r\n    \r\n    \r\n    \r\n    \r\n    function get_accessed_patientlist_for_doctor(address addr) public view returns (address[] memory)\r\n    {\r\n        return doctorInfo[addr].patientAccessList;\r\n    }\r\n\r\n\r\n\r\n    \r\n    function revoke_access(address daddr) public payable{\r\n        remove_patient(msg.sender,daddr);\r\n        msg.sender.transfer(2 ether);\r\n        creditPool -= 2;\r\n    }\r\n\r\n\r\n\r\n    function get_patient_list() public view returns(address[] memory){\r\n        return patientList;\r\n    }\r\n    \r\n    \r\n    \r\n\r\n    function get_doctor_list() public view returns(address[] memory){\r\n        return doctorList;\r\n    }\r\n    \r\n    \r\n    \r\n    function get_insurer_list() public view returns(address[] memory){\r\n        return insurerList;\r\n    }\r\n    \r\n    \r\n\r\n    function get_hash(address paddr) public view returns(string memory){\r\n        return patientInfo[paddr].record;\r\n    }\r\n\r\n\r\n\r\n    function set_hash(address paddr, string memory _hash) internal {\r\n        patientInfo[paddr].record = _hash;\r\n    }\r\n\r\n}\r\n\r\n",
  "sourcePath": "C:/Users/samun/Desktop/EMR/contracts/Agent.sol",
  "compiler": {
    "name": "solc",
    "version": "0.5.16+commit.9c3226ce.Emscripten.clang"
  },
  "schemaVersion": "3.4.1",
  "updatedAt": "2022-01-21T09:27:25.966Z",
  "networkType": "ethereum",
  "devdoc": {
    "methods": {}
  },
  "userdoc": {
    "methods": {}
  }
}